S0250000737465707065725F6D6F746F725F656D6265646465645F7363686F6F6C2E73726563FC
S11300000C942A000C9447000C9447000C9447006D
S11300100C9447000C9447000C9447000C94470040
S11300200C9447000C9447000C9454010C94470022
S11300300C9447000C9447000C9447000C94470020
S11300400C9447000C9447000C9447000C94470010
S11300500C94470011241FBECFE5D8E0DEBFCDBF0E
S113006010E0A0E6B0E0E4EFF8E002C005900D92E5
S1130070AA37B107D9F720E0AAE7B0E001C01D9282
S1130080AA38B207E1F70E94ED030C9478040C94AB
S11300900000EF92FF920F931F93CF93DF93C1E67B
S11300A0D0E00AE710E00F2EF9E6EF2EF0E0FF2E85
S11300B0F02DFE01319740E0688180810E94AE00FE
S11300C0F80111928F012296CE15DF0591F7DF9189
S11300D0CF911F910F91FF90EF900895EF92FF92AF
S11300E00F931F93CF93DF931F92CDB7DEB77B019E
S11300F0082F10E0F801EE0FFF1FE05AFF4FAE018A
S11301004F5F5F4F618180810E940E01F801E658C4
S1130110FF4F8081811109C089818823A1F0F801F2
S1130120E658FF4F81E080830FC08981811105C0AB
S1130130F801E658FF4F108207C0F801E658FF4F58
S113014081E0808301C081E0F70180830F90DF911B
S1130150CF911F910F91FF90EF900895813081F01E
S113016028F08230B9F0833041F51EC08AB3962F4F
S1130170909589238ABB8AB36423682B6ABB08954C
S113018087B3962F9095892387BB87B36423682B05
S113019067BB089584B3962F9095892384BB84B359
S11301A06423682B64BB089581B3962F90958923AB
S11301B081BB81B36423682B61BB0895813081F0D6
S11301C028F08230B9F0833041F51EC08BB3962FEE
S11301D0909589238BBB8BB36423682B6BBB0895E9
S11301E088B3962F9095892388BB88B36423682BA2
S11301F068BB089585B3962F9095892385BB85B3F5
S11302006423682B65BB089582B3962F9095892348
S113021082BB82B36423682B62BB0895813059F09A
S113022028F0823069F08330A1F40FC089B36823C9
S1130230FA016083089586B36823FA016083089500
S113024083B36823FA016083089580B36823FA01B5
S113025060830895813051F028F0823059F0833062
S113026081F40CC08BB368276BBB089588B36827EF
S113027068BB089585B3682765BB089582B3682772
S113028062BB089513BE23B7286023BF2CE72CBF9D
S113029029B7226029BF90937F0080937E00089540
S11302A083B7826083BF08951F920F920FB60F9297
S11302B011242F933F934F935F936F937F938F9367
S11302C09F93AF93BF93EF93FF93E0917E00F091E0
S11302D07F000995FF91EF91BF91AF919F918F910D
S11302E07F916F915F914F913F912F910F900FBE2E
S11302F00F901F9018958091800090918100A0919B
S11303008200B09183000196A11DB11D80938000ED
S113031090938100A0938200B09383008091860023
S113032090918700A0918800B09189000196A11D49
S1130330B11D8093860090938700A0938800B093AA
S1130340890008950F931F93CF93DF93C9E6D0E0FC
S113035001E710E0FE0131974FEF688180810E9430
S1130360AE002296C017D107A9F78BE791E00E944F
S113037042010E945001DF91CF911F910F91089586
S1130380CF93C62F409180005091810060918200EC
S1130390709183004B3F510561057105A8F18130CF
S11303A051F440E068E082E00E94DE0064E082E014
S11303B00E942A010AC0823041F440E064E00E94B5
S11303C0DE0068E082E00E942A01C83051F440E077
S11303D062E082E00E94DE0061E082E00E942A0185
S11303E00BC0C43049F440E061E082E00E94DE00CA
S11303F062E082E00E942A01109280001092810043
S11304001092820010928300CF9108954FEF6FE015
S113041080E00E94AE0040E06FE080E00E94DE00D9
S113042008950F931F93962F60E070E0009186006B
S1130430109187002091880030918900401751075E
S11304406207730708F0C6C1883009F095C091307F
S113045009F047C08091840081110FC040E06FE033
S11304600E94DE004FEF61E080E00E94DE00809198
S113047084008F5F80938400A5C1813081F440E0C3
S11304806FE080E00E94DE004FEF64E080E00E94B5
S1130490DE00809184008F5F8093840093C182305A
S11304A081F440E06FE080E00E94DE004FEF62E004
S11304B080E00E94DE00809184008F5F809384003E
S11304C081C1833009F07EC140E06FE080E00E948A
S11304D0DE004FEF68E080E00E94DE0010928400AE
S11304E071C1923009F06EC18091840081110DC0F8
S11304F040E06FE00E94DE004FEF62E080E00E9487
S1130500DE0083E0809384005DC1813081F440E0AB
S11305106FE080E00E94DE004FEF68E080E00E9420
S1130520DE00809184008150809384004BC182302E
S113053081F440E06FE080E00E94DE004FEF61E074
S113054080E00E94DE0080918400815080938400CA
S113055039C1833009F036C140E06FE080E00E9489
S1130560DE004FEF64E080E00E94DE0080918400B2
S113057081508093840026C1843009F023C19130D6
S113058009F08FC08091850081110FC040E06FE0B9
S11305900E94DE004FEF6AE080E00E94DE0080915E
S11305A085008F5F809385000DC1813081F440E028
S11305B06FE080E00E94DE004FEF68E080E00E9480
S11305C0DE00809185008F5F80938500FBC08230C0
S11305D081F440E06FE080E00E94DE004FEF69E0CC
S11305E080E00E94DE00809185008F5F809385000B
S11305F0E9C0833081F440E06FE080E00E94DE00D7
S11306004FEF61E080E00E94DE00809185008F5F03
S113061080938500D7C0843081F440E06FE080E0AF
S11306200E94DE004FEF65E080E00E94DE008091D2
S113063085008F5F80938500C5C0853081F440E0DC
S11306406FE080E00E94DE004FEF64E080E00E94F3
S1130650DE00809185008F5F80938500B3C0863073
S113066081F440E06FE080E00E94DE004FEF66E03E
S113067080E00E94DE00809185008F5F809385007A
S1130680A1C0873009F09EC040E06FE080E00E9486
S1130690DE004FEF62E080E00E94DE0010928500F1
S11306A091C0923009F08EC08091850081110DC0F7
S11306B040E06FE00E94DE004FEF66E080E00E94C1
S11306C0DE0087E0809385007DC0813081F440E0C6
S11306D06FE080E00E94DE004FEF62E080E00E9465
S11306E0DE00809185008150809385006BC082304C
S11306F081F440E06FE080E00E94DE004FEF6AE0AA
S113070080E00E94DE008091850081508093850006
S113071059C0833081F440E06FE080E00E94DE0045
S11307204FEF68E080E00E94DE00809185008150F8
S11307308093850047C0843081F440E06FE080E01E
S11307400E94DE004FEF69E080E00E94DE008091AD
S1130750850081508093850035C0853081F440E068
S11307606FE080E00E94DE004FEF61E080E00E94D5
S1130770DE008091850081508093850023C08630FF
S113078081F440E06FE080E00E94DE004FEF65E01E
S113079080E00E94DE008091850081508093850076
S11307A011C0873079F440E06FE080E00E94DE0001
S11307B04FEF64E080E00E94DE008091850081506C
S11307C08093850010928600109287001092880012
S11307D0109289001F910F910895CF93DF93CDB7A5
S11307E0DEB72B970FB6F894DEBF0FBECDBF1982CC
S11307F08AE0E0E7F0E0DE01129601900D928A951E
S1130800E1F70E94A2010E9449000E940602789426
S11308106894FF24F1F808EE13E0912CA12CD12C5C
S1130820E12C6894882482F8CC24C39468947724B7
S113083073F86894BB24B1F8BE016F5F7F4F80E00A
S11308400E946E008981811107C0A11003C0AC2CE5
S1130850E72C02C0A12CE82CBE016F5F7F4F8C2DCA
S11308600E946E008981811107C0911003C09C2CE5
S1130870DC2C02C0912CDB2CBE016F5F7F4F8B2DD3
S11308800E946E008981811110C0F39485E0F812F2
S113089001C0F12CEF2DEE0FFF0B81E090E08C0FE7
S11308A09D1FE80FF91F01811281BE016F5F7F4F09
S11308B083E00E946E008981811110C0FA949FEF39
S11308C0F91201C0F82CEF2DEE0FFF0B81E090E040
S11308D08C0F9D1FE80FF91F018112816E2D8D2D44
S11308E00E94C001A8016D2D8E2D0E941102A4CF7B
S10708F0F894FFCFA6
S11308F403010302030403080201020202040208BE
S10D0904B80BD007E803F401C800A3
S9030000FC
